{
  "contractName": "voting",
  "abi": [
    {
      "inputs": [],
      "name": "registerCandidate",
      "outputs": [
        {
          "internalType": "bytes32",
          "name": "",
          "type": "bytes32"
        }
      ],
      "stateMutability": "nonpayable",
      "type": "function"
    },
    {
      "inputs": [
        {
          "internalType": "address",
          "name": "_candidate",
          "type": "address"
        }
      ],
      "name": "castVote",
      "outputs": [],
      "stateMutability": "nonpayable",
      "type": "function"
    },
    {
      "inputs": [],
      "name": "winner",
      "outputs": [
        {
          "internalType": "address",
          "name": "",
          "type": "address"
        }
      ],
      "stateMutability": "view",
      "type": "function"
    },
    {
      "inputs": [],
      "name": "removeVote",
      "outputs": [],
      "stateMutability": "nonpayable",
      "type": "function"
    }
  ],
  "bytecode": "0x608060405234801561001057600080fd5b50610cc2806100206000396000f3fe608060405234801561001057600080fd5b506004361061004c5760003560e01c806349aa4ee21461005157806353358fc41461005b578063dfbf53ae14610077578063f7e0079e14610095575b600080fd5b6100596100b3565b005b61007560048036038101906100709190610972565b61031d565b005b61007f610516565b60405161008c91906109ae565b60405180910390f35b61009d610691565b6040516100aa91906109e2565b60405180910390f35b60005b60008054905081101561031a5760018060008084815481106100db576100da6109fd565b5b9060005260206000200160009054906101000a900473ffffffffffffffffffffffffffffffffffffffff1673ffffffffffffffffffffffffffffffffffffffff1673ffffffffffffffffffffffffffffffffffffffff16815260200190815260200160002060010160003373ffffffffffffffffffffffffffffffffffffffff1673ffffffffffffffffffffffffffffffffffffffff16815260200190815260200160002060006101000a81548160ff021916908315150217905515610307576000600160008084815481106101b4576101b36109fd565b5b9060005260206000200160009054906101000a900473ffffffffffffffffffffffffffffffffffffffff1673ffffffffffffffffffffffffffffffffffffffff1673ffffffffffffffffffffffffffffffffffffffff16815260200190815260200160002060010160003373ffffffffffffffffffffffffffffffffffffffff1673ffffffffffffffffffffffffffffffffffffffff16815260200190815260200160002060006101000a81548160ff0219169083151502179055506001806000808481548110610288576102876109fd565b5b9060005260206000200160009054906101000a900473ffffffffffffffffffffffffffffffffffffffff1673ffffffffffffffffffffffffffffffffffffffff1673ffffffffffffffffffffffffffffffffffffffff16815260200190815260200160002060020160008282546102ff9190610a65565b925050819055505b808061031290610a99565b9150506100b6565b50565b60018060008373ffffffffffffffffffffffffffffffffffffffff1673ffffffffffffffffffffffffffffffffffffffff16815260200190815260200160002060030160006101000a81548160ff02191690831515021790556103b5576040517f08c379a00000000000000000000000000000000000000000000000000000000081526004016103ac90610b3e565b60405180910390fd5b8073ffffffffffffffffffffffffffffffffffffffff163373ffffffffffffffffffffffffffffffffffffffff1603610423576040517f08c379a000000000000000000000000000000000000000000000000000000000815260040161041a90610baa565b60405180910390fd5b60018060008373ffffffffffffffffffffffffffffffffffffffff1673ffffffffffffffffffffffffffffffffffffffff16815260200190815260200160002060010160003373ffffffffffffffffffffffffffffffffffffffff1673ffffffffffffffffffffffffffffffffffffffff16815260200190815260200160002060006101000a81548160ff02191690831515021790555060018060008373ffffffffffffffffffffffffffffffffffffffff1673ffffffffffffffffffffffffffffffffffffffff168152602001908152602001600020600201600082825461050c9190610bca565b9250508190555050565b6000806000805b6000805490508110156106885760016000808381548110610541576105406109fd565b5b9060005260206000200160009054906101000a900473ffffffffffffffffffffffffffffffffffffffff1673ffffffffffffffffffffffffffffffffffffffff1673ffffffffffffffffffffffffffffffffffffffff1681526020019081526020016000206002015482101561067557600160008083815481106105c8576105c76109fd565b5b9060005260206000200160009054906101000a900473ffffffffffffffffffffffffffffffffffffffff1673ffffffffffffffffffffffffffffffffffffffff1673ffffffffffffffffffffffffffffffffffffffff16815260200190815260200160002060020154915060008181548110610647576106466109fd565b5b9060005260206000200160009054906101000a900473ffffffffffffffffffffffffffffffffffffffff1692505b808061068090610a99565b91505061051d565b50819250505090565b60008073ffffffffffffffffffffffffffffffffffffffff16600160003373ffffffffffffffffffffffffffffffffffffffff1673ffffffffffffffffffffffffffffffffffffffff16815260200190815260200160002060000160009054906101000a900473ffffffffffffffffffffffffffffffffffffffff1673ffffffffffffffffffffffffffffffffffffffff1614610763576040517f08c379a000000000000000000000000000000000000000000000000000000000815260040161075a90610c6c565b60405180910390fd5b6000339080600181540180825580915050600190039060005260206000200160009091909190916101000a81548173ffffffffffffffffffffffffffffffffffffffff021916908373ffffffffffffffffffffffffffffffffffffffff16021790555033600160003373ffffffffffffffffffffffffffffffffffffffff1673ffffffffffffffffffffffffffffffffffffffff16815260200190815260200160002060000160006101000a81548173ffffffffffffffffffffffffffffffffffffffff021916908373ffffffffffffffffffffffffffffffffffffffff1602179055506000600160003373ffffffffffffffffffffffffffffffffffffffff1673ffffffffffffffffffffffffffffffffffffffff1681526020019081526020016000206002018190555060018060003373ffffffffffffffffffffffffffffffffffffffff1673ffffffffffffffffffffffffffffffffffffffff16815260200190815260200160002060030160006101000a81548160ff0219169083151502179055507f5265676973746572205375636365737366756c00000000000000000000000000905090565b600080fd5b600073ffffffffffffffffffffffffffffffffffffffff82169050919050565b600061093f82610914565b9050919050565b61094f81610934565b811461095a57600080fd5b50565b60008135905061096c81610946565b92915050565b6000602082840312156109885761098761090f565b5b60006109968482850161095d565b91505092915050565b6109a881610934565b82525050565b60006020820190506109c3600083018461099f565b92915050565b6000819050919050565b6109dc816109c9565b82525050565b60006020820190506109f760008301846109d3565b92915050565b7f4e487b7100000000000000000000000000000000000000000000000000000000600052603260045260246000fd5b6000819050919050565b7f4e487b7100000000000000000000000000000000000000000000000000000000600052601160045260246000fd5b6000610a7082610a2c565b9150610a7b83610a2c565b925082821015610a8e57610a8d610a36565b5b828203905092915050565b6000610aa482610a2c565b91507fffffffffffffffffffffffffffffffffffffffffffffffffffffffffffffffff8203610ad657610ad5610a36565b5b600182019050919050565b600082825260208201905092915050565b7f43616e646964617465204e6f7420526567697374657265640000000000000000600082015250565b6000610b28601883610ae1565b9150610b3382610af2565b602082019050919050565b60006020820190508181036000830152610b5781610b1b565b9050919050565b7f53656c66204361737420696e206e6f7420616c6c6f7765640000000000000000600082015250565b6000610b94601883610ae1565b9150610b9f82610b5e565b602082019050919050565b60006020820190508181036000830152610bc381610b87565b9050919050565b6000610bd582610a2c565b9150610be083610a2c565b9250827fffffffffffffffffffffffffffffffffffffffffffffffffffffffffffffffff03821115610c1557610c14610a36565b5b828201905092915050565b7f416c726561647920526567697374657265640000000000000000000000000000600082015250565b6000610c56601283610ae1565b9150610c6182610c20565b602082019050919050565b60006020820190508181036000830152610c8581610c49565b905091905056fea26469706673582212203aa5b563c178608abe1088ab4d4858c045a4623b5af25e5bd4b19cc1a3efa6b864736f6c634300080f0033",
  "immutableReferences": {},
  "source": "pragma solidity ^0.8.7;\r\n\r\ncontract voting {\r\n    struct votes{\r\n        address candidate;\r\n        mapping(address=>bool) voters;\r\n        uint voteCount;\r\n        bool active;\r\n    }\r\n    address[] candidates;\r\n    mapping(address => votes) Candidates;\r\n    \r\n    function registerCandidate () public returns(bytes32) {\r\n       require(Candidates[msg.sender].candidate == address(0), \"Already Registered\");\r\n       candidates.push(msg.sender);\r\n       Candidates[msg.sender].candidate = msg.sender;\r\n       Candidates[msg.sender].voteCount = 0;\r\n       Candidates[msg.sender].active = true;\r\n       return \"Register Successful\";\r\n        \r\n    }\r\n    \r\n    function castVote (address _candidate) public {\r\n       require(Candidates[_candidate].active = true, \"Candidate Not Registered\");\r\n       require(msg.sender != _candidate, \"Self Cast in not allowed\");\r\n       Candidates[_candidate].voters[msg.sender] = true;\r\n       Candidates[_candidate].voteCount += 1;\r\n    }\r\n     \r\n    function winner() view public returns (address){\r\n        address winnerCandidate;\r\n        uint maxVotes = 0;\r\n        for(uint i = 0; i< candidates.length; i++){\r\n            if ( maxVotes <  Candidates[candidates[i]].voteCount){\r\n                maxVotes =  Candidates[candidates[i]].voteCount;\r\n                winnerCandidate = candidates[i];\r\n            }\r\n        }\r\n        return winnerCandidate;\r\n    }\r\n    function removeVote() public {\r\n        for(uint i = 0; i< candidates.length; i++){\r\n            if(Candidates[candidates[i]].voters[msg.sender] = true){\r\n                Candidates[candidates[i]].voters[msg.sender] = false;\r\n                Candidates[candidates[i]].voteCount -= 1;\r\n            }\r\n        }\r\n    }\r\n\r\n}",
  "sourcePath": "E:\\Croma-Blockchain\\Ethereum\\Voting\\contracts\\voting.sol",
  "compiler": {
    "name": "solc",
    "version": "0.8.15+commit.e14f2714.Emscripten.clang"
  },
  "schemaVersion": "3.4.8",
  "updatedAt": "2022-09-09T10:35:59.819Z",
  "devdoc": {
    "kind": "dev",
    "methods": {},
    "version": 1
  },
  "userdoc": {
    "kind": "user",
    "methods": {},
    "version": 1
  }
}